:100000000C9463000C9460080C9487080C948B008B
:100010000C948B000C948B000C948B000C948B0034
:100020000C948B000C948B000C948B000C948B0024
:100030000C948B000C948B000C948B000C948B0014
:100040000C94AE080C948B000C94900B0C94C20B87
:100050000C948B000C948B000C948B000C948B00F4
:100060000C948B000C948B0000000008000201002F
:100070000003040700000000000000000102040863
:100080001020408001020408102001020408102002
:10009000040404040404040402020202020203032E
:1000A00003030303000000002300260029000000D2
:1000B0000000250028002B0000000000240027007D
:1000C0002A008801F20B11241FBECFEFD8E0DEBF5B
:1000D000CDBF11E0A0E0B1E0E8E0F0E202C00590A1
:1000E0000D92A23DB107D9F723E0A2EDB1E001C026
:1000F0001D92AB32B207E1F710E0C6ECD0E004C0CD
:100100002297FE010E942D0DC23CD107C9F70E9423
:10011000360C0C9402100C94000020918400309155
:100120008500C901A0E0B0E08093D5019093D6018D
:10013000A093D701B093D80110928500109284004B
:10014000883542E09407A105B10528F43093D40125
:100150002093D3010895893823E19207A105B105C1
:1001600018F01092D20108954091D201E42FF0E0EE
:100170002091D3013091D401820F931FA11DB11D95
:10018000B695A79597958795EE0FFF1FE752FE4FFF
:10019000918380834F5F4093D201089540ED57E0F3
:1001A00060E070E08EE492E00E94A60720E032EC6E
:1001B00041E050E06EE872E08EE492E00E94B90700
:1001C0008EE492E00E94A30764E071E080917F02D8
:1001D000909180020E94830C6AE070E080E090E0E1
:1001E0000E94270941E060E08EE492E00E9424082A
:1001F00028EC42E06BE28AEF91E00E94400461E06B
:100200008AEF91E00E9408076091F9018AEF91E07E
:100210000E94420726E040E052EC61E070E08EE888
:1002200092E00E942E0B66E171E08EE892E00E945F
:10023000890C60E083E00E94B30941E050E06DE882
:1002400070E081E00E94400810928000E1E8F0E058
:1002500010828081826080830895CF92DF92EF9236
:10026000FF920F931F93CF93DF93CDB7DEB7C456A2
:10027000D1090FB6F894DEBF0FBECDBF52E3E52E15
:1002800002E020E249ED51E061E08AEF91E00E9456
:100290001B0200E010E06EE2C62E61E0D62ECE0119
:1002A00001967C01F801EE0FFF1FE752FE4F80819F
:1002B00091819F938F931F930F93DF92CF92FF9221
:1002C000EF920E94310DB7018EE892E00E94830CFC
:1002D0000F5F1F4F0FB6F894DEBF0FBECDBF0031CA
:1002E000110501F768EE73E080E090E00E942709B5
:1002F000CC59DF4F0FB6F894DEBF0FBECDBFDF91F4
:10030000CF911F910F91FF90EF90DF90CF900895C4
:100310008FE391E09093FB018093FA018AE0809350
:10032000FC0182E08093FD011092FE0181E0809348
:100330000F02109200028FE18093010210920202DC
:10034000089508958091050290910602DC01ED91D7
:10035000FC910484F585E02D0994CF93DF93EC01A3
:1003600061E08A810E94EC0989858CBD8A858DBDFA
:100370007894DF91CF910895FC01F8948CB5818732
:100380008DB582878CB5837F8CBD8CB58F7D8CBD00
:100390008CB58C7F8CBD8DB58E7F8DBD60E08281EC
:1003A0000C94EC09F89420910F02233021F4209151
:1003B0000B0221110FC020910F02233011F4789409
:1003C00007C0DC01ED91FC910288F389E02D0995CD
:1003D00080E00895DC01ED91FC910488F589E02D21
:1003E00061E0099581E008958EBD00000DB407FE1F
:1003F000FDCF8EB50895CF93DF931F92CDB7DEB7B3
:10040000DC01ED91FC910480F581E02D6983099573
:100410006981882359F080910D02861711F06F3F92
:1004200029F49091090281E0911101C080E00F90C0
:10043000DF91CF9108952F923F924F925F927F92DA
:100440008F929F92AF92BF92CF92DF92EF92FF92E4
:100450000F931F93CF93DF93EC01962E5A01722EC8
:10046000802E10E0CE2CD12CE12CF12CE881F981EA
:100470000190F081E02D01E0272DA501692DCE012D
:1004800009950E94F8081B012C010E94F8086219C6
:100490007309840995096C157D058E059F0540F447
:1004A000692DCE010E94FB01882379F381E004C00D
:1004B0001F5F8116D8F680E0DF91CF911F910F91D9
:1004C000FF90EF90DF90CF90BF90AF909F908F9074
:1004D0007F905F904F903F902F900895EF92FF9202
:1004E0001F93CF93DF931F92CDB7DEB77C01DC0162
:1004F000ED91FC91008CF18DE02D69830995698166
:10050000862F8F770E94F40180E00E94F401182F5B
:10051000D701ED91FC91028CF38DE02DC701099577
:10052000812F0F90DF91CF911F91FF90EF90089551
:100530000F931F93CF93DF9300D0CDB7DEB78C011D
:10054000DC01ED91FC91008CF18DE02D4A836983F3
:1005500009956981862F80680E94F4014A81842F61
:100560000E94F401D801ED91FC91028CF38DE02DF5
:10057000C8010F900F90DF91CF911F910F910994B7
:100580001F93CF93DF93EC01162F80910F02681712
:1005900009F461C0623009F440C070F4662309F4C4
:1005A00044C0613009F057C061E0CE010E946E0284
:1005B000482F437E44603FC06330C1F0643009F08F
:1005C0004AC061E0CE010E946E02482F437E4C601B
:1005D00061E0CE010E9498028885882381F1E8813C
:1005E000F9810688F789E02D61E014C061E0CE0151
:1005F0000E946E02482F437E406161E0CE010E945E
:10060000980288858823D9F0E881F9810688F789DE
:10061000E02D60E0CE01099512C061E0CE010E949C
:100620006E02482F437E486006C061E0CE010E9402
:100630006E02482F437E61E0CE010E9498028091B5
:100640000F02811106C067E2CE010E946E0287FF91
:10065000F6CF10930F02DF91CF911F910895CF93A2
:10066000DF93EC01603208F06FE16F8388858823A7
:1006700011F066956F8361E1CE010E946E02482FF2
:10068000407E8F81482B61E1CE01DF91CF910C94A8
:100690009802CF92DF92EF92FF920F931F93CF9326
:1006A000DF93EC01F62ED42EC52E122FE881F981AE
:1006B0000488F589E02D61E0099567E2CE010E948A
:1006C0006E0287FFFACF40E065E2CE010E949802F9
:1006D0001E3308F01DE3E11004C0002319F000E40C
:1006E00001C000E8E881F981008CF18DE02DCE0198
:1006F000099580E80E94F40183E0810F0E94F401D3
:100700008F2D0E94F4018D810E94F401802F0E94A0
:10071000F4010D2DED2CFC2C8E2D801B811730F457
:10072000F70181917F010E94F401F6CFE881F98100
:10073000028CF38DE02DCE010995E881F9810488C2
:10074000F589E02D64E0CE0109950E94F8086B015F
:100750007C018B810E94220A892B81F0E881F9813A
:100760000488F589E02D61E0CE01DF91CF911F91E2
:100770000F91FF90EF90DF90CF9009940E94F808BE
:100780006C197D098E099F09683E734081059105AA
:1007900028F7DFCFCF93DF93EC0110920E02109277
:1007A0000D0210920C0210920B0210920A0210928B
:1007B0000902109208021092070268E20E946E027B
:1007C00082FF0AC06DE3CE010E946E02482F446092
:1007D0006DE3CE010E94980240E465E2CE010E94E2
:1007E0009802E881F9810488F589E02D63E0CE0163
:1007F000DF91CF910994DF92EF92FF920F931F93B5
:10080000CF93DF93EC018B01E881F9810488F589AE
:10081000E02D61E0099501151105E1F0E881F9810C
:10082000008CF18DE02DCE0109958EEB0E94F40134
:100830007801D12CF70181917F010E94F401D394BA
:10084000F0E1DF12F7CFE881F981028CF38DE02D22
:10085000CE0109956DE3CE010E946E028E7F91E07C
:10086000012B09F490E0482F492B6DE3CE01DF9175
:10087000CF911F910F91FF90EF90DF900C94980211
:100880008F929F92AF92BF92DF92EF92FF920F935F
:100890001F93CF93DF93CDB7DEB7AE970FB6F89423
:1008A000DEBF0FBECDBF7C01D42E8EE28E010F5F66
:1008B0001F4FD801E82F1D92EA95E9F791E099833F
:1008C00034E03A8342E04B8393E09D834E833F8341
:1008D00040E4488735E039879A8796E09B8793E321
:1008E0009C8737E03D8798E09F8799E0998B99E155
:1008F0009B8B92E49C8B55E25D8B4E8B46E24F8B3B
:10090000388F38E2398F30E13A8F39E23B8F3CED56
:100910003C8F8D8F88E88E8F8FE28F8F8DE288A33A
:1009200080E389A337E33BA330E93CA338E33DA34D
:100930009EA39CE39FA39FE898A79DE399A792E1BC
:100940009AA79FE69BA78CA78FEF8DA76F3131F0F9
:100950006B3231F0663531F489ED05C08EE403C0A9
:100960008CE601C084EE8E876F3141F06B3221F04E
:10097000663521F480E003C080E401C080EC888B00
:100980002AA361E0D70112968C910E94EC0961E0E4
:10099000F70182810E94B3090E9445070E94F8086E
:1009A0004B015C014AEA6FE2C7010E9498026FE2C4
:1009B000C7010E946E028A3A59F00E94F80868192D
:1009C00079098A099B09623371058105910550F304
:1009D0000E94F8084B015C0145E56FE2C7010E94E7
:1009E00098026FE2C7010E946E02853559F00E949D
:1009F000F808681979098A099B096233710581052C
:100A0000910550F3B12CF801EB0DF11DEB0DF11D2B
:100A100060816F3F31F04181C7010E949802B39419
:100A2000F2CF60E070E0C7010E94FB03D701ED91B7
:100A3000FC9111970084F185E02D18966C91C70107
:100A40000995D701ED91FC910488F589E02D61E0CD
:100A5000C70109950E94F8084B015C0167E2C701D4
:100A60000E946E0287FD0BC00E94F8086819790980
:100A70008A099B09623371058105910578F30E940B
:100A8000F808681979098A099B096233710581059B
:100A9000910588F443E050E062EA71E0F701848157
:100AA0000E944008F0920602E0920502D7011596D6
:100AB000DC9281E001C080E0AE960FB6F894DEBF14
:100AC0000FBECDBFDF91CF911F910F91FF90EF909F
:100AD000DF90BF90AF909F908F900895CF93DF935A
:100AE000EC0161110DC064E2CE010E946E0290E043
:100AF00091958195910995958795DF91CF9108956D
:100B000041E063E20E94980263E2CE010E946E021D
:100B100081FFFACFE8CFCF93DF93EC0180910F02F2
:100B20008330A9F480910B02811111C060E0CE01E5
:100B30000E946E05863A9F4F54F4E881F98104883B
:100B4000F589E02D61E0CE01099581E001C080E0EA
:100B5000DF91CF910895FF920F931F93CF93DF936F
:100B6000EC0180910F02833001F568E2CE010E9412
:100B70006E0282FD28C019C080910E028D3330F4C0
:100B8000E0910E02F0E0E05FFD4F1082E881F98114
:100B9000028CF38DE02DCE010995E881F98104885E
:100BA000F589E02D63E0CE01099560E0CE010E9459
:100BB0006E059093080280930702DF91CF911F91F9
:100BC0000F91FF900895E881F9810488F589E02D5F
:100BD00061E0CE010995E881F981008CF18DE02D6D
:100BE000CE01099580E00E94F40180E00E94F401AA
:100BF00080930B0280910B028334D0F480910B021E
:100C000080930B0280E00E94F40180930C028E819D
:100C1000811109C090910C028D81981721F080916B
:100C20000C028F3F39F480910B02833018F017C00B
:100C300082E4E6CF10920B02E881F981028CF38DF9
:100C4000E02DCE010995E881F9810288F389E02D34
:100C5000CE01DF91CF911F910F91FF900994809168
:100C60000B02835080930E0280E00E94F401809377
:100C70000D0280E00E94F401982F90789093090271
:100C8000982F907490930A02E881F9810684F78581
:100C9000E02D682FCE010995F12C80910E02F816F7
:100CA00008F06ACF0F2D10E080E00E94F401F801F7
:100CB000E05FFD4F8083F394F0CF4F925F926F928D
:100CC0007F929F92AF92BF92EF920F931F93CF9319
:100CD000DF93EC01162F5A01922E6DE30E946E02F3
:100CE000482F44606DE3CE010E9498020E94F808EC
:100CF0002B013C01CE010E948B058823C1F0E881C5
:100D0000F9810088F189E02DE12C292DA501612FC1
:100D1000CE010995DF91CF911F910F91EF90BF9078
:100D2000AF909F907F906F905F904F9008950E943A
:100D3000F8086419750986099709683E73408105AA
:100D40009105E8F6E881F9810480F581E02DCE0176
:100D50000995D0CF4F925F926F927F929F92AF9200
:100D6000BF92CF92DF92EF92FF920F93CF93DF93D8
:100D7000EC015B01942E10920A02F0900D02C090DB
:100D80000702D09008026DE30E946E02482F446073
:100D90006DE3CE010E9498020E94F8082B013C01ED
:100DA000CE010E948B05882301F1E881F98100883A
:100DB000F189E02DEE24E39400E0292DA5016F2DAB
:100DC000CE010995D0920802C0920702DF91CF911F
:100DD0000F91FF90EF90DF90CF90BF90AF909F90DA
:100DE0007F906F905F904F9008950E94F80864196B
:100DF000750986099709683E734081059105A8F633
:100E0000E881F9810480F581E02DCE010995C8CFF4
:100E1000CF93DF93EC016887662311F04FE001C0A8
:100E20004AE163E1CE010E9498028885882341F05F
:100E300061E1CE010E946E02482F4F71406602C0F0
:100E40004F81406861E1CE01DF91CF910C9498020F
:100E50001F93CF93DF93EC01162F662311F04DE51E
:100E600001C045E56AE5CE010E949802112311F008
:100E70004CE701C040E76CE5CE01DF91CF911F91B7
:100E80000C949802FC0166830895CF93CFB7F89431
:100E900080914D02811127C0EAE9F0E08491E6E8F3
:100EA000F0E09491E82FF0E0EE0FFF1FE854FF4FC1
:100EB000A591B4918C91892321F461E08AE00E948C
:100EC000EC0961E08AE00E94B3098CB580618CBDB9
:100ED0008CB580648CBD61E08DE00E94B30961E057
:100EE0008BE00E94B30980914D028F5F80934D0289
:100EF000CFBFCF9108950F931F93CF93DF93EC0152
:100F0000662359F00E94F80869837A838B839C8357
:100F1000DF91CF911F910F9108950E94F8080981E8
:100F20001A812B813C81601B710B820B930B613208
:100F300071058105910530F763E070E080E090E095
:100F40000E942709EACF60E00C947B07FC0113AAFA
:100F500014AA15AA16AA11821282138214824115AC
:100F600051056105710521F0CB01BA010C942709E7
:100F70000895FB01BA01A901DC01D296FC93EE931E
:100F8000D19726E0CF010C942E0B1F93CF93DF93C4
:100F9000EC01162F6BE571E089A99AA90E94830CD8
:100FA0004AE050E0612F89A99AA90E94010D62E6EA
:100FB00071E089A99AA90E94830C62E370E080E045
:100FC00090E0DF91CF911F910C9427091F93CF934D
:100FD000DF93EC01162F8D81882389F189A99AA9C5
:100FE000DC01ED91FC910480F581E02D0995892BC0
:100FF000A9F307C02637310519F12835310509F461
:101000001D8289A99AA9DC01ED91FC910480F581EA
:10101000E02D09951816190694F489A99AA9DC01FE
:10102000ED91FC910680F781E02D09959C01332715
:1010300023363105F9F6612FCE010E94C50783E6FC
:10104000DF91CF911F9108950F931F93CF93DF935B
:101050001F92CDB7DEB78C01662349F081E0F8011D
:10106000858360E0C80149830E94E6074981F80151
:1010700045830F90DF91CF911F910F9108950895AF
:101080008230E8F4E82FF0E0EE0FFF1FE050FF4F52
:1010900071836083813041F0809169008C7F842B63
:1010A00080936900E89A089580916900440F551F64
:1010B000440F551F837F842B80936900E99A08951C
:1010C0001F920F920FB60F9211242F933F934F93BD
:1010D0005F936F937F938F939F93AF93BF93EF93A0
:1010E000FF93E0910001F09101010995FF91EF91CB
:1010F000BF91AF919F918F917F916F915F914F9130
:101100003F912F910F900FBE0F901F9018951F9237
:101110000F920FB60F9211242F933F934F935F932B
:101120006F937F938F939F93AF93BF93EF93FF93AF
:10113000E0910201F09103010995FF91EF91BF91B8
:10114000AF919F918F917F916F915F914F913F915F
:101150002F910F900FBE0F901F9018951F920F9216
:101160000FB60F9211242F933F938F939F93AF93BA
:10117000BF938091860290918702A0918802B091DE
:1011800089023091850223E0230F2D3720F4019648
:10119000A11DB11D05C026E8230F0296A11DB11D9A
:1011A000209385028093860290938702A093880201
:1011B000B093890280918A0290918B02A0918C0257
:1011C000B0918D020196A11DB11D80938A0290936A
:1011D0008B02A0938C02B0938D02BF91AF919F912F
:1011E0008F913F912F910F900FBE0F901F901895E8
:1011F0002FB7F894609186027091870280918802DF
:10120000909189022FBF08953FB7F89480918A0288
:1012100090918B02A0918C02B0918D0226B5A89B73
:1012200005C02F3F19F00196A11DB11D3FBF6627D4
:10123000782F892F9A2F620F711D811D911D42E019
:10124000660F771F881F991F4A95D1F70895CF928F
:10125000DF92EF92FF92CF93DF936B017C010E94AC
:101260000409EB01C114D104E104F10489F00E94E6
:10127000080D0E9404096C1B7D0B683E734090F3BF
:1012800081E0C81AD108E108F108C851DC4FEACF63
:10129000DF91CF91FF90EF90DF90CF9008957894F9
:1012A00084B5826084BD84B5816084BD85B582606B
:1012B00085BD85B5816085BDEEE6F0E08081816009
:1012C0008083E1E8F0E01082808182608083808109
:1012D00081608083E0E8F0E0808181608083E1EBE1
:1012E000F0E0808184608083E0EBF0E080818160C9
:1012F0008083EAE7F0E0808184608083808182607F
:101300008083808181608083808180688083109267
:10131000C1000895833081F028F4813099F0823043
:10132000A1F008958730A9F08830B9F08430D1F465
:10133000809180008F7D03C0809180008F778093A3
:101340008000089584B58F7702C084B58F7D84BDF9
:1013500008958091B0008F7703C08091B0008F7D99
:101360008093B0000895CF93DF9390E0FC01E458A0
:10137000FF4F2491FC01E057FF4F8491882349F1EE
:1013800090E0880F991FFC01E854FF4FA591B4919C
:1013900082559F4FFC01C591D4919FB7611108C040
:1013A000F8948C91209582238C93888182230AC0A3
:1013B000623051F4F8948C91322F309583238C93C2
:1013C0008881822B888304C0F8948C91822B8C9323
:1013D0009FBFDF91CF9108950F931F93CF93DF931A
:1013E0001F92CDB7DEB7282F30E0F901E859FF4F43
:1013F0008491F901E458FF4F1491F901E057FF4F30
:1014000004910023C9F0882321F069830E948A098E
:101410006981E02FF0E0EE0FFF1FE255FF4FA5912D
:10142000B4919FB7F8948C91611103C010958123FA
:1014300001C0812B8C939FBF0F90DF91CF911F91A3
:101440000F910895CF93DF93282F30E0F901E859E9
:10145000FF4F8491F901E458FF4FD491F901E0570F
:10146000FF4FC491CC2391F081110E948A09EC2F87
:10147000F0E0EE0FFF1FEC55FF4FA591B4912C91BA
:101480002D2381E090E021F480E002C080E090E034
:10149000DF91CF910895FC01818D228D90E0805CD9
:1014A0009F4F821B91098F7399270895FC01918D9D
:1014B000828D981731F0828DE80FF11D858D90E0B7
:1014C00008958FEF9FEF0895FC01918D828D9817FD
:1014D00061F0828DDF01A80FB11D5D968C91928D18
:1014E0009F5F9F73928F90E008958FEF9FEF089515
:1014F00088EE9BE0892B49F080E090E0892B29F071
:101500000E94E80B81110C9400000895FC01848D69
:10151000DF01A80FB11DA35ABF4F2C91848D90E01D
:1015200001968F739927848FA689B7892C93A089F8
:10153000B1898C9180648C93938D848D981306C0AF
:101540000288F389E02D80818F7D80830895CF9379
:10155000DF93EC01888D8823C9F0EA89FB898081BB
:1015600085FD05C0A889B9898C9186FD0FC00FB68D
:1015700007FCF5CF808185FFF2CFA889B9898C91CE
:1015800085FFEDCFCE010E94860AE7CFDF91CF9194
:101590000895CF92DF92FF920F931F93CF93DF9323
:1015A0001F92CDB7DEB76C0181E0D60158968C93BF
:1015B00058975B969C915B975C968C915C9798137F
:1015C00007C05096ED91FC915197808185FD2EC00A
:1015D000F601038D10E00F5F1F4F0F731127F02EE0
:1015E000F601848DF81211C00FB607FCF9CFD601B1
:1015F0005096ED91FC915197808185FFF1CFC60106
:1016000069830E94860A6981EBCF838DE80FF11D03
:10161000E35AFF4F6083D6015B960C935B9752961B
:10162000ED91FC915397808180620CC0D601569653
:10163000ED91FC91579760835096ED91FC915197F5
:1016400080818064808381E090E00F90DF91CF9172
:101650001F910F91FF90DF90CF900895BF92CF928E
:10166000DF92EF92FF92CF93DF93EC016A017B014F
:10167000B22EE889F98982E08083411581EE58070E
:1016800061057105A1F060E079E08DE390E0A701CC
:1016900096010E94090D21503109410951095695C1
:1016A000479537952795211580E1380798F0E88907
:1016B000F989108260E874E88EE190E0A701960154
:1016C0000E94090D2150310941095109569547954C
:1016D00037952795EC85FD853083EE85FF85208342
:1016E000188EEC89FD89B082EA89FB89808180614E
:1016F0008083EA89FB89808188608083EA89FB890D
:10170000808180688083EA89FB8980818F7D8083E6
:10171000DF91CF91FF90EF90DF90CF90BF90089531
:101720001F920F920FB60F9211242F938F939F93B6
:10173000EF93FF93E0919E02F0919F028081E091F0
:10174000A402F091A50282FD12C090818091A702AF
:101750008F5F8F732091A802821751F0E091A7024A
:10176000F0E0E257FD4F958F8093A70201C0808182
:10177000FF91EF919F918F912F910F900FBE0F903E
:101780001F9018951F920F920FB60F9211242F934E
:101790003F934F935F936F937F938F939F93AF93F9
:1017A000BF93EF93FF938EE892E00E94860AFF9129
:1017B000EF91BF91AF919F918F917F916F915F91C9
:1017C0004F913F912F910F900FBE0F901F90189542
:1017D0008EE892E00E944B0A21E0892B09F420E078
:1017E000822F0895109291021092900288EE93E059
:1017F000A0E0B0E08093920290939302A0939402B1
:10180000B093950287EB91E090938F0280938E02C4
:1018100085EC90E090939B0280939A0284EC90E098
:1018200090939D0280939C0280EC90E090939F02A5
:1018300080939E0281EC90E09093A1028093A0029D
:1018400082EC90E09093A3028093A20286EC90E059
:101850009093A5028093A4021092A7021092A8026E
:101860001092A9021092AA02089508950E944F09A9
:101870000E94350C0E94CE00C8E7DAE00E942D01DC
:101880002097E1F30E94780AF9CFCF92DF92EF928E
:10189000FF920F931F93CF93DF937C016A01EB01BB
:1018A00000E010E00C151D0571F06991D701ED9174
:1018B000FC910190F081E02DC7010995892B19F069
:1018C0000F5F1F4FEFCFC801DF91CF911F910F9195
:1018D000FF90EF90DF90CF9008956115710581F032
:1018E000DB010D900020E9F7AD0141505109461B85
:1018F000570BDC01ED91FC910280F381E02D0994FE
:1019000080E090E008950C946D0C68E671E00C9412
:101910006D0C0F931F93CF93DF93EC010E946D0C1E
:101920008C01CE010E94850C800F911FDF91CF9119
:101930001F910F9108958F929F92AF92BF92CF9275
:10194000DF92EF92FF920F931F93CF93DF93CDB768
:10195000DEB7A1970FB6F894DEBF0FBECDBF7C01F6
:10196000C42EE52FCB01D22E19A221E02D1510F0A7
:101970002AE0D22E8E010F5D1F4F8D2C912CA12CB1
:10198000B12C6C2D7E2FA50194010E94090D8C2D88
:10199000D29E80191124015011098A3014F4805DFF
:1019A00001C0895CF801808321153105410551058D
:1019B00021F0C22EE32FCA01E4CFB801C7010E9473
:1019C0006D0CA1960FB6F894DEBF0FBECDBFDF91B0
:1019D000CF911F910F91FF90EF90DF90CF90BF902C
:1019E000AF909F908F9008952115310541F4DC014F
:1019F000ED91FC910190F081E02D642F09940C94FD
:101A00009B0C9A01462F50E060E070E00C94F40CBF
:101A10000895A1E21A2EAA1BBB1BFD010DC0AA1F2F
:101A2000BB1FEE1FFF1FA217B307E407F50720F047
:101A3000A21BB30BE40BF50B661F771F881F991FC2
:101A40001A9469F760957095809590959B01AC010B
:101A5000BD01CF010895EE0FFF1F0590F491E02D19
:101A60000994AEE0B0E0E7E3FDE00C94D90F0D89F6
:101A70001E8986E08C831A8309838FEF9FE79E83FC
:101A80008D83AE01475E5F4F6F89788DCE010196E1
:101A90000E94530DEF81F885E00FF11F10822E9602
:101AA000E4E00C94F50FACE0B0E0E9E5FDE00C9467
:101AB000CB0F7C016B018A01FC01178216828381A6
:101AC00081FFBDC1CE0101964C01F7019381F60162
:101AD00093FD859193FF81916F01882309F4ABC138
:101AE000853239F493FD859193FF81916F018532A1
:101AF00029F4B70190E00E943B0FE7CF512C312C25
:101B000020E02032A0F48B3269F030F4803259F0BA
:101B1000833269F420612CC08D3239F0803339F47E
:101B2000216026C02260246023C0286021C027FDD8
:101B300027C030ED380F3A3078F426FF06C0FAE0BF
:101B40005F9E300D1124532E13C08AE0389E300D55
:101B50001124332E20620CC08E3221F426FD6BC17D
:101B6000206406C08C3611F4206802C0883641F427
:101B7000F60193FD859193FF81916F018111C1CF92
:101B8000982F9F7D9554933028F40C5F1F4FFFE3EF
:101B9000F9830DC0833631F0833771F0833509F056
:101BA0005BC022C0F801808189830E5F1F4F4424EF
:101BB0004394512C540115C03801F2E06F0E711C92
:101BC000F801A080B18026FF03C0652D70E002C03F
:101BD0006FEF7FEFC5012C870E94300F2C0183012E
:101BE0002C852F77222E17C03801F2E06F0E711C62
:101BF000F801A080B18026FF03C0652D70E002C00F
:101C00006FEF7FEFC5012C870E94250F2C012C85DB
:101C10002068222E830123FC1BC0832D90E04816F0
:101C20005906B0F4B70180E290E00E943B0F3A946D
:101C3000F4CFF50127FC859127FE81915F01B70163
:101C400090E00E943B0F31103A94F1E04F1A510896
:101C50004114510471F7E5C0843611F0893639F525
:101C6000F80127FF07C060817181828193810C5F39
:101C70001F4F08C060817181882777FD8095982F5C
:101C80000E5F1F4F2F76B22E97FF09C0909580955B
:101C9000709561957F4F8F4F9F4F2068B22E2AE03D
:101CA00030E0A4010E946D0FA82EA81844C085370B
:101CB00029F42F7EB22E2AE030E025C0F22FF97FE2
:101CC000BF2E8F36C1F018F4883579F0B4C0803754
:101CD00019F0883721F0AFC02F2F2061B22EB4FE4B
:101CE0000DC08B2D8460B82E09C024FF0AC09F2F21
:101CF0009660B92E06C028E030E005C020E130E053
:101D000002C020E132E0F801B7FE07C060817181B6
:101D1000828193810C5F1F4F06C06081718180E0DA
:101D200090E00E5F1F4FA4010E946D0FA82EA8180F
:101D3000FB2DFF77BF2EB6FE0BC02B2D2E7FA514DB
:101D400050F4B4FE0AC0B2FC08C02B2D2E7E05C094
:101D50007A2C2B2D03C07A2C01C0752C24FF0DC0CA
:101D6000FE01EA0DF11D8081803311F4297E09C046
:101D700022FF06C07394739404C0822F867809F002
:101D8000739423FD13C020FF06C05A2C731418F45B
:101D9000530C5718732C731468F4B70180E290E069
:101DA0002C870E943B0F73942C85F5CF731410F48D
:101DB000371801C0312C24FF12C0B70180E390E036
:101DC0002C870E943B0F2C8522FF17C021FF03C0E8
:101DD00088E590E002C088E790E0B7010CC0822F50
:101DE000867859F021FD02C080E201C08BE227FD18
:101DF0008DE2B70190E00E943B0FA51438F4B701C3
:101E000080E390E00E943B0F5A94F7CFAA94F4012C
:101E1000EA0DF11D8081B70190E00E943B0FA110F7
:101E2000F5CF332009F451CEB70180E290E00E9453
:101E30003B0F3A94F6CFF7018681978102C08FEF6E
:101E40009FEF2C96E2E10C94E70FFC0105906150A6
:101E500070400110D8F7809590958E0F9F1F0895C0
:101E6000FC016150704001900110D8F78095909569
:101E70008E0F9F1F08950F931F93CF93DF93182FFB
:101E8000092FEB018B8181FD03C08FEF9FEF20C0F5
:101E900082FF10C04E815F812C813D814217530724
:101EA0007CF4E881F9819F012F5F3F4F39832883BC
:101EB000108306C0E885F985812F0995892B29F7BC
:101EC0002E813F812F5F3F4F3F832E83812F902FA5
:101ED000DF91CF911F910F910895FA01AA27283021
:101EE00051F1203181F1E8946F936E7F6E5F7F4FE7
:101EF0008F4F9F4FAF4FB1E03ED0B4E03CD0670F63
:101F0000781F891F9A1FA11D680F791F8A1F911DB5
:101F1000A11D6A0F711D811D911DA11D20D009F405
:101F200068943F912AE0269F11243019305D319347
:101F3000DEF6CF010895462F4770405D4193B3E030
:101F40000FD0C9F7F6CF462F4F70405D4A3318F0D7
:101F5000495D31FD4052419302D0A9F7EACFB4E088
:101F6000A6959795879577956795BA95C9F7009740
:101F70006105710508959B01AC010A2E06945795E1
:101F8000479537952795BA95C9F7620F731F841F38
:101F9000951FA01D08952F923F924F925F926F92CE
:101FA0007F928F929F92AF92BF92CF92DF92EF92E9
:101FB000FF920F931F93CF93DF93CDB7DEB7CA1B6A
:101FC000DB0B0FB6F894DEBF0FBECDBF09942A8895
:101FD000398848885F846E847D848C849B84AA843D
:101FE000B984C884DF80EE80FD800C811B81AA81CA
:101FF000B981CE0FD11D0FB6F894DEBF0FBECDBF95
:08200000ED010895F894FFCFF3
:102008003F083F08564D4450565F317C315F564D6E
:102018004450560D0A00576972656C6573732054F5
:102028007261696E6E6572204361626C65006368F7
:102038005B25645D203D2025640A00000000005DEA
:10204800061B02D201AA0608072F03AB05A1014906
:1020580003CA03C0022807BC01AD01564D445043D2
:102068005F005F564D4450430D0A004572726F720F
:102078003A20417474656D707420746F20736574B0
:10208800206120726561642D6F6E6C7920766172B3
:102098006961626C65206F72206461746120747973
:1020A8007065206E6F7420737570706F72746564DC
:1020B8000D0A0000000000C90A450C4B0A640A56C4
:1020C8000AA70A6E616E00696E66006F7666002E5A
:0220D800000006
:00000001FF
